{
  "_format": "hh-sol-artifact-1",
  "contractName": "PatentRegistryMarketPlace",
  "sourceName": "contracts/PatentRegistryMarketPlace.sol",
  "abi": [
    {
      "inputs": [
        {
          "internalType": "address",
          "name": "NFTContractAddress",
          "type": "address"
        }
      ],
      "stateMutability": "payable",
      "type": "constructor"
    },
    {
      "anonymous": false,
      "inputs": [
        {
          "indexed": true,
          "internalType": "uint256",
          "name": "disputeId",
          "type": "uint256"
        },
        {
          "indexed": true,
          "internalType": "address",
          "name": "initiator",
          "type": "address"
        },
        {
          "indexed": true,
          "internalType": "address",
          "name": "respondent",
          "type": "address"
        }
      ],
      "name": "DisputeInitiated",
      "type": "event"
    },
    {
      "anonymous": false,
      "inputs": [
        {
          "indexed": true,
          "internalType": "uint256",
          "name": "disputeId",
          "type": "uint256"
        }
      ],
      "name": "DisputeResolved",
      "type": "event"
    },
    {
      "anonymous": false,
      "inputs": [
        {
          "indexed": true,
          "internalType": "uint256",
          "name": "agreementId",
          "type": "uint256"
        }
      ],
      "name": "LicenseAgreementApproved",
      "type": "event"
    },
    {
      "anonymous": false,
      "inputs": [
        {
          "indexed": true,
          "internalType": "uint256",
          "name": "agreementId",
          "type": "uint256"
        },
        {
          "indexed": true,
          "internalType": "uint256",
          "name": "patentId",
          "type": "uint256"
        },
        {
          "indexed": false,
          "internalType": "address",
          "name": "patentOwner",
          "type": "address"
        }
      ],
      "name": "LicenseAgreementCreated",
      "type": "event"
    },
    {
      "anonymous": false,
      "inputs": [
        {
          "indexed": true,
          "internalType": "uint256",
          "name": "agreementId",
          "type": "uint256"
        }
      ],
      "name": "LicenseAgreementRejected",
      "type": "event"
    },
    {
      "anonymous": false,
      "inputs": [
        {
          "indexed": true,
          "internalType": "uint256",
          "name": "agreementId",
          "type": "uint256"
        },
        {
          "indexed": true,
          "internalType": "address",
          "name": "licensee",
          "type": "address"
        },
        {
          "indexed": false,
          "internalType": "uint256",
          "name": "amount",
          "type": "uint256"
        }
      ],
      "name": "RoyaltyPaid",
      "type": "event"
    },
    {
      "inputs": [],
      "name": "NFT",
      "outputs": [
        {
          "internalType": "contract PatentNFT",
          "name": "",
          "type": "address"
        }
      ],
      "stateMutability": "view",
      "type": "function"
    },
    {
      "inputs": [
        {
          "internalType": "uint256",
          "name": "patentID",
          "type": "uint256"
        }
      ],
      "name": "_exists",
      "outputs": [
        {
          "internalType": "bool",
          "name": "",
          "type": "bool"
        }
      ],
      "stateMutability": "nonpayable",
      "type": "function"
    },
    {
      "inputs": [
        {
          "internalType": "uint256",
          "name": "_agreementId",
          "type": "uint256"
        }
      ],
      "name": "approveLicenseAgreement",
      "outputs": [],
      "stateMutability": "nonpayable",
      "type": "function"
    },
    {
      "inputs": [
        {
          "internalType": "uint256",
          "name": "_patentId",
          "type": "uint256"
        },
        {
          "internalType": "uint256",
          "name": "_price",
          "type": "uint256"
        },
        {
          "internalType": "uint256",
          "name": "_royaltyPercentage",
          "type": "uint256"
        },
        {
          "internalType": "uint256",
          "name": "_expirationDate",
          "type": "uint256"
        }
      ],
      "name": "createLicenseAgreement",
      "outputs": [],
      "stateMutability": "nonpayable",
      "type": "function"
    },
    {
      "inputs": [
        {
          "internalType": "uint256",
          "name": "",
          "type": "uint256"
        }
      ],
      "name": "disputes",
      "outputs": [
        {
          "internalType": "uint256",
          "name": "disputeId",
          "type": "uint256"
        },
        {
          "internalType": "uint256",
          "name": "patentId",
          "type": "uint256"
        },
        {
          "internalType": "address",
          "name": "initiator",
          "type": "address"
        },
        {
          "internalType": "address",
          "name": "respondent",
          "type": "address"
        },
        {
          "internalType": "string",
          "name": "description",
          "type": "string"
        },
        {
          "internalType": "enum PatentRegistryMarketPlace.DisputeStatus",
          "name": "status",
          "type": "uint8"
        },
        {
          "internalType": "uint256",
          "name": "upVoteCount",
          "type": "uint256"
        },
        {
          "internalType": "uint256",
          "name": "downVoteCount",
          "type": "uint256"
        },
        {
          "internalType": "uint256",
          "name": "startTime",
          "type": "uint256"
        }
      ],
      "stateMutability": "view",
      "type": "function"
    },
    {
      "inputs": [
        {
          "internalType": "uint256",
          "name": "_disputeID",
          "type": "uint256"
        }
      ],
      "name": "downVoteDispute",
      "outputs": [],
      "stateMutability": "nonpayable",
      "type": "function"
    },
    {
      "inputs": [
        {
          "internalType": "uint256",
          "name": "_patentId",
          "type": "uint256"
        }
      ],
      "name": "getPatent",
      "outputs": [
        {
          "components": [
            {
              "internalType": "uint256",
              "name": "patentId",
              "type": "uint256"
            },
            {
              "internalType": "string",
              "name": "title",
              "type": "string"
            },
            {
              "internalType": "string",
              "name": "description",
              "type": "string"
            },
            {
              "internalType": "address",
              "name": "inventor",
              "type": "address"
            },
            {
              "internalType": "uint256",
              "name": "filingDate",
              "type": "uint256"
            },
            {
              "internalType": "string[]",
              "name": "documents",
              "type": "string[]"
            },
            {
              "internalType": "bool",
              "name": "verified",
              "type": "bool"
            }
          ],
          "internalType": "struct PatentRegistryMarketPlace.Patent",
          "name": "",
          "type": "tuple"
        }
      ],
      "stateMutability": "nonpayable",
      "type": "function"
    },
    {
      "inputs": [
        {
          "internalType": "uint256",
          "name": "_patentId",
          "type": "uint256"
        },
        {
          "internalType": "address",
          "name": "_respondent",
          "type": "address"
        },
        {
          "internalType": "string",
          "name": "_description",
          "type": "string"
        }
      ],
      "name": "initiateDispute",
      "outputs": [],
      "stateMutability": "nonpayable",
      "type": "function"
    },
    {
      "inputs": [
        {
          "internalType": "uint256",
          "name": "",
          "type": "uint256"
        }
      ],
      "name": "licenseAgreements",
      "outputs": [
        {
          "internalType": "uint256",
          "name": "agreementId",
          "type": "uint256"
        },
        {
          "internalType": "uint256",
          "name": "patentId",
          "type": "uint256"
        },
        {
          "internalType": "address",
          "name": "patentOwner",
          "type": "address"
        },
        {
          "internalType": "uint256",
          "name": "price",
          "type": "uint256"
        },
        {
          "internalType": "uint256",
          "name": "royaltyPercentage",
          "type": "uint256"
        },
        {
          "internalType": "bool",
          "name": "isApproved",
          "type": "bool"
        },
        {
          "internalType": "bool",
          "name": "isEscrowed",
          "type": "bool"
        },
        {
          "internalType": "uint256",
          "name": "expirationDate",
          "type": "uint256"
        }
      ],
      "stateMutability": "view",
      "type": "function"
    },
    {
      "inputs": [
        {
          "internalType": "uint256",
          "name": "patentID",
          "type": "uint256"
        }
      ],
      "name": "ownerOf",
      "outputs": [
        {
          "internalType": "address",
          "name": "",
          "type": "address"
        }
      ],
      "stateMutability": "nonpayable",
      "type": "function"
    },
    {
      "inputs": [
        {
          "internalType": "uint256",
          "name": "_agreementId",
          "type": "uint256"
        },
        {
          "internalType": "uint256",
          "name": "_amount",
          "type": "uint256"
        }
      ],
      "name": "payRoyalty",
      "outputs": [],
      "stateMutability": "nonpayable",
      "type": "function"
    },
    {
      "inputs": [
        {
          "internalType": "string",
          "name": "_title",
          "type": "string"
        },
        {
          "internalType": "string",
          "name": "_description",
          "type": "string"
        },
        {
          "internalType": "string[]",
          "name": "_documents",
          "type": "string[]"
        },
        {
          "internalType": "string",
          "name": "tokenURI",
          "type": "string"
        }
      ],
      "name": "registerPatent",
      "outputs": [],
      "stateMutability": "nonpayable",
      "type": "function"
    },
    {
      "inputs": [
        {
          "internalType": "uint256",
          "name": "_agreementId",
          "type": "uint256"
        }
      ],
      "name": "rejectLicenseAgreement",
      "outputs": [],
      "stateMutability": "nonpayable",
      "type": "function"
    },
    {
      "inputs": [
        {
          "internalType": "uint256",
          "name": "_disputeId",
          "type": "uint256"
        }
      ],
      "name": "resolveDispute",
      "outputs": [],
      "stateMutability": "nonpayable",
      "type": "function"
    },
    {
      "inputs": [],
      "name": "totalDisputes",
      "outputs": [
        {
          "internalType": "uint256",
          "name": "",
          "type": "uint256"
        }
      ],
      "stateMutability": "view",
      "type": "function"
    },
    {
      "inputs": [],
      "name": "totalLicenseAgreements",
      "outputs": [
        {
          "internalType": "uint256",
          "name": "",
          "type": "uint256"
        }
      ],
      "stateMutability": "view",
      "type": "function"
    },
    {
      "inputs": [
        {
          "internalType": "uint256",
          "name": "_disputeID",
          "type": "uint256"
        }
      ],
      "name": "upVoteDispute",
      "outputs": [],
      "stateMutability": "nonpayable",
      "type": "function"
    },
    {
      "inputs": [
        {
          "internalType": "uint256",
          "name": "_patentId",
          "type": "uint256"
        }
      ],
      "name": "verifyPatent",
      "outputs": [],
      "stateMutability": "payable",
      "type": "function"
    }
  ],
  "bytecode": "0x6080604052604051611be4380380611be483398101604081905261002291610047565b600080546001600160a01b0319166001600160a01b0392909216919091179055610077565b60006020828403121561005957600080fd5b81516001600160a01b038116811461007057600080fd5b9392505050565b611b5e806100866000396000f3fe6080604052600436106101095760003560e01c806392c25e5f11610095578063c5e4ccc411610064578063c5e4ccc414610399578063c606c289146103af578063d07fef26146103cf578063f8e76cc0146103ef578063ff219c8a1461043157600080fd5b806392c25e5f146102725780639c6d0d781461032c578063c15fce3a14610359578063c2b7b8681461037957600080fd5b806353456829116100dc578063534568291461018c578063564a565d146101ac5780636352211e146101e157806378c8b503146102325780637c0b8de21461025257600080fd5b806309f63a531461010e5780630b6794c71461012357806327fcc8f81461014357806351ebca7b1461016c575b600080fd5b61012161011c3660046114f8565b610451565b005b34801561012f57600080fd5b5061012161013e366004611611565b6105a7565b34801561014f57600080fd5b5061015960055481565b6040519081526020015b60405180910390f35b34801561017857600080fd5b506101216101873660046114f8565b610712565b34801561019857600080fd5b506101216101a7366004611745565b610817565b3480156101b857600080fd5b506101cc6101c73660046114f8565b610927565b604051610163999897969594939291906117da565b3480156101ed57600080fd5b5061021a6101fc3660046114f8565b6000908152600160205260409020600301546001600160a01b031690565b6040516001600160a01b039091168152602001610163565b34801561023e57600080fd5b5061012161024d36600461185c565b610a0c565b34801561025e57600080fd5b5060005461021a906001600160a01b031681565b34801561027e57600080fd5b506102e161028d3660046114f8565b600260208190526000918252604090912080546001820154928201546003830154600484015460058501546006909501549395946001600160a01b03909316939192909160ff808316926101009004169088565b6040805198895260208901979097526001600160a01b039095169587019590955260608601929092526080850152151560a084015290151560c083015260e082015261010001610163565b34801561033857600080fd5b5061034c6103473660046114f8565b610abe565b60405161016391906118c4565b34801561036557600080fd5b506101216103743660046114f8565b610dcd565b34801561038557600080fd5b506101216103943660046114f8565b610eb9565b3480156103a557600080fd5b5061015960065481565b3480156103bb57600080fd5b506101216103ca3660046114f8565b610fd5565b3480156103db57600080fd5b506101216103ea3660046114f8565b6110b8565b3480156103fb57600080fd5b5061042161040a3660046114f8565b600090815260016020526040902060040154151590565b6040519015158152602001610163565b34801561043d57600080fd5b5061012161044c36600461199d565b611182565b6000818152600160205260409020600401546104ac5760405162461bcd60e51b815260206004820152601560248201527414185d195b9d08191bd95cc81b9bdd08195e1a5cdd605a1b60448201526064015b60405180910390fd5b6000818152600160205260409020600301546001600160a01b031633146105155760405162461bcd60e51b815260206004820152601c60248201527f596f7520617265206e6f742074686520706174656e74206f776e65720000000060448201526064016104a3565b670de0b6b3a76400003410156105865760405162461bcd60e51b815260206004820152603060248201527f546865207374616b656420616d6f756e742073686f756c64206265206772656160448201526f3a32b9103a3430b710189032ba3432b960811b60648201526084016104a3565b6000908152600160208190526040909120600601805460ff19169091179055565b6004805490819060006105b9836119d5565b90915550506040805160e081018252828152602080820189815282840189905233606084015242608084015260a08301889052600060c08401819052858152600180845294902083518155905180519394919361061e93928501929190910190611338565b506040820151805161063a916002840191602090910190611338565b5060608201516003820180546001600160a01b0319166001600160a01b039092169190911790556080820151600482015560a082015180516106869160058401916020909101906113bc565b5060c091909101516006909101805460ff19169115159190911790556000546040516334ff261960e21b81526001600160a01b039091169063d3fc9864906106d89033908590889088906004016119f0565b600060405180830381600087803b1580156106f257600080fd5b505af1158015610706573d6000803e3d6000fd5b50505050505050505050565b6000818152600260208190526040909120908101546001600160a01b031633146107795760405162461bcd60e51b8152602060048201526018602482015277596f7520617265206e6f7420746865206c6963656e73656560401b60448201526064016104a3565b600581015460ff161561079e5760405162461bcd60e51b81526004016104a390611a38565b60008281526002602081905260408083208381556001810184905591820180546001600160a01b0319169055600382018390556004820183905560058201805461ffff1916905560069091018290555183917f4bb353aca4d5f8bfcac1f067daacb91a631fa87779540beedb9473e00a69ff1e91a25050565b60058054906000610827836119d5565b90915550506040805161010080820183526005805480845260208085018a815233868801818152606088018c8152608089018c8152600060a08b0181815260c08c0182815260e08d018f81529983526002808a52928e90209c518d55965160018d01559351908b0180546001600160a01b0319166001600160a01b03909216919091179055905160038a0155516004890155518786018054935161ffff1990941691151561ff001916919091179215159096029190911790945590516006909401939093555492519081528692917fef558a7d32f3c8d421663b4a9a54de9cd5a1f57f84ab1bde7321e544e4a487de91015b60405180910390a350505050565b600360208190526000918252604090912080546001820154600283015493830154600484018054939592946001600160a01b0393841694939092169261096c90611a7d565b80601f016020809104026020016040519081016040528092919081815260200182805461099890611a7d565b80156109e55780601f106109ba576101008083540402835291602001916109e5565b820191906000526020600020905b8154815290600101906020018083116109c857829003601f168201915b50505050600583015460088401546009850154600a90950154939460ff9092169390925089565b60068054906000610a1c836119d5565b9091555050600654600090815260036020819052604090912060018101869055600281018054336001600160a01b03199182161790915591810180549092166001600160a01b03861617909155610a77600482018484611415565b5042600a8201556006546040516001600160a01b0386169133917fca2b68577a6d5c8a4cf7ca880d9e6d77e971d52de6faa729fc238f129f0401e990600090a45050505050565b610b096040518060e0016040528060008152602001606081526020016060815260200160006001600160a01b0316815260200160008152602001606081526020016000151581525090565b600082815260016020526040902060040154610b5f5760405162461bcd60e51b815260206004820152601560248201527414185d195b9d08191bd95cc81b9bdd08195e1a5cdd605a1b60448201526064016104a3565b600082815260016020818152604092839020835160e0810190945280548452918201805491840191610b9090611a7d565b80601f0160208091040260200160405190810160405280929190818152602001828054610bbc90611a7d565b8015610c095780601f10610bde57610100808354040283529160200191610c09565b820191906000526020600020905b815481529060010190602001808311610bec57829003601f168201915b50505050508152602001600282018054610c2290611a7d565b80601f0160208091040260200160405190810160405280929190818152602001828054610c4e90611a7d565b8015610c9b5780601f10610c7057610100808354040283529160200191610c9b565b820191906000526020600020905b815481529060010190602001808311610c7e57829003601f168201915b505050505081526020016003820160009054906101000a90046001600160a01b03166001600160a01b03166001600160a01b031681526020016004820154815260200160058201805480602002602001604051908101604052809291908181526020016000905b82821015610dae578382906000526020600020018054610d2190611a7d565b80601f0160208091040260200160405190810160405280929190818152602001828054610d4d90611a7d565b8015610d9a5780601f10610d6f57610100808354040283529160200191610d9a565b820191906000526020600020905b815481529060010190602001808311610d7d57829003601f168201915b505050505081526020019060010190610d02565b505050908252506006919091015460ff16151560209091015292915050565b6000818152600360209081526040808320338452600681019092529091205460ff1615610e3c5760405162461bcd60e51b815260206004820152601e60248201527f416c7265616479207570766f746564206f6e207468652044697370757465000060448201526064016104a3565b33600090815260078201602052604090205460ff1615610e6e57600981018054906000610e6883611ab8565b91905055505b3360009081526007820160209081526040808320805460ff199081169091556006850190925282208054909116600117905560088201805491610eb0836119d5565b91905055505050565b600081815260036020526040812090600582015460ff166001811115610ee157610ee16117c4565b14610f275760405162461bcd60e51b815260206004820152601660248201527544697370757465206973206e6f742070656e64696e6760501b60448201526064016104a3565b4281600a0154620d2f00610f3b9190611acf565b11610f975760405162461bcd60e51b815260206004820152602660248201527f4e6f7420656e6f7567682074696d6520746f207265736f6c766520746865206460448201526569737075746560d01b60648201526084016104a3565b60058101805460ff1916600117905560405182907f57cce005d496355471bb5269f1dea3d6c81b6ac14c1d74ba28aefb022357013b90600090a25050565b6000818152600360209081526040808320338452600781019092529091205460ff16156110445760405162461bcd60e51b815260206004820181905260248201527f416c726561647920646f776e566f746564206f6e20746865204469737075746560448201526064016104a3565b33600090815260078201602052604090205460ff16156110765760088101805490600061107083611ab8565b91905055505b3360009081526007820160209081526040808320805460ff199081166001179091556006850190925282208054909116905560098201805491610eb0836119d5565b6000818152600260208190526040909120908101546001600160a01b0316331461111f5760405162461bcd60e51b8152602060048201526018602482015277596f7520617265206e6f7420746865206c6963656e73656560401b60448201526064016104a3565b600581015460ff16156111445760405162461bcd60e51b81526004016104a390611a38565b60058101805460ff1916600117905560405182907f71249bd838b3ec9e22f091c64bd7647d3fb13c32776f95ae5d1292bf0878009d90600090a25050565b6000828152600260205260409020600581015460ff166111ee5760405162461bcd60e51b815260206004820152602160248201527f4c6963656e73652061677265656d656e74206973206e6f7420617070726f76656044820152601960fa1b60648201526084016104a3565b6005810154610100900460ff166112475760405162461bcd60e51b815260206004820152601760248201527f46756e647320617265206e6f7420696e20657363726f7700000000000000000060448201526064016104a3565b428160060154101561129b5760405162461bcd60e51b815260206004820152601d60248201527f4c6963656e73652061677265656d656e7420686173206578706972656400000060448201526064016104a3565b600060648260040154846112af9190611ae7565b6112b99190611b06565b60058301805461ff001916905560028301546040519192506001600160a01b03169082156108fc029083906000818181858888f19350505050158015611303573d6000803e3d6000fd5b50604051818152339085907ff670029fc6f5302baba881b4ae845d1453acdf752b4c19ed81fe0fa6a686409b90602001610919565b82805461134490611a7d565b90600052602060002090601f01602090048101928261136657600085556113ac565b82601f1061137f57805160ff19168380011785556113ac565b828001600101855582156113ac579182015b828111156113ac578251825591602001919060010190611391565b506113b8929150611489565b5090565b828054828255906000526020600020908101928215611409579160200282015b8281111561140957825180516113f9918491602090910190611338565b50916020019190600101906113dc565b506113b892915061149e565b82805461142190611a7d565b90600052602060002090601f01602090048101928261144357600085556113ac565b82601f1061145c5782800160ff198235161785556113ac565b828001600101855582156113ac579182015b828111156113ac57823582559160200191906001019061146e565b5b808211156113b8576000815560010161148a565b808211156113b85760006114b282826114bb565b5060010161149e565b5080546114c790611a7d565b6000825580601f106114d7575050565b601f0160209004906000526020600020908101906114f59190611489565b50565b60006020828403121561150a57600080fd5b5035919050565b634e487b7160e01b600052604160045260246000fd5b604051601f8201601f1916810167ffffffffffffffff8111828210171561155057611550611511565b604052919050565b600082601f83011261156957600080fd5b813567ffffffffffffffff81111561158357611583611511565b611596601f8201601f1916602001611527565b8181528460208386010111156115ab57600080fd5b816020850160208301376000918101602001919091529392505050565b60008083601f8401126115da57600080fd5b50813567ffffffffffffffff8111156115f257600080fd5b60208301915083602082850101111561160a57600080fd5b9250929050565b60008060008060006080868803121561162957600080fd5b853567ffffffffffffffff8082111561164157600080fd5b61164d89838a01611558565b965060209150818801358181111561166457600080fd5b6116708a828b01611558565b96505060408801358181111561168557600080fd5b8801601f81018a1361169657600080fd5b8035828111156116a8576116a8611511565b8060051b6116b7858201611527565b918252828101850191858101908d8411156116d157600080fd5b86850192505b8383101561170d578235868111156116ef5760008081fd5b6116fd8f8983890101611558565b83525091860191908601906116d7565b985050505060608901359250508082111561172757600080fd5b50611734888289016115c8565b969995985093965092949392505050565b6000806000806080858703121561175b57600080fd5b5050823594602084013594506040840135936060013592509050565b6000815180845260005b8181101561179d57602081850181015186830182015201611781565b818111156117af576000602083870101525b50601f01601f19169290920160200192915050565b634e487b7160e01b600052602160045260246000fd5b898152602081018990526001600160a01b038881166040830152871660608201526101206080820181905260009061181483820189611777565b9150506002861061183557634e487b7160e01b600052602160045260246000fd5b8560a08301528460c08301528360e0830152826101008301529a9950505050505050505050565b6000806000806060858703121561187257600080fd5b8435935060208501356001600160a01b038116811461189057600080fd5b9250604085013567ffffffffffffffff8111156118ac57600080fd5b6118b8878288016115c8565b95989497509550505050565b600060208083528351818401528084015160e060408501526118ea610100850182611777565b90506040850151601f19808684030160608701526119088383611777565b60608801516001600160a01b031660808881019190915288015160a088810191909152880151878203830160c089015280518083529194508501925084840190600581901b8501860160005b82811015611980578487830301845261196e828751611777565b95880195938801939150600101611954565b5060c08a015180151560e08b015296509998505050505050505050565b600080604083850312156119b057600080fd5b50508035926020909101359150565b634e487b7160e01b600052601160045260246000fd5b60006000198214156119e9576119e96119bf565b5060010190565b6001600160a01b0385168152602081018490526060604082018190528101829052818360808301376000818301608090810191909152601f909201601f191601019392505050565b60208082526025908201527f4c6963656e73652061677265656d656e7420697320616c7265616479206170706040820152641c9bdd995960da1b606082015260800190565b600181811c90821680611a9157607f821691505b60208210811415611ab257634e487b7160e01b600052602260045260246000fd5b50919050565b600081611ac757611ac76119bf565b506000190190565b60008219821115611ae257611ae26119bf565b500190565b6000816000190483118215151615611b0157611b016119bf565b500290565b600082611b2357634e487b7160e01b600052601260045260246000fd5b50049056fea26469706673582212205b3954a28c3c398f0f447eeaf8c9c18cb76a1578f61224ff17bd0134bc74ac9b64736f6c63430008090033",
  "linkReferences": {},
  "deployedLinkReferences": {}
}