{
  "_format": "hh-sol-artifact-1",
  "contractName": "PatentNFT",
  "sourceName": "contracts/PatentNFT.sol",
  "abi": [
    {
      "inputs": [],
      "stateMutability": "nonpayable",
      "type": "constructor"
    },
    {
      "anonymous": false,
      "inputs": [
        {
          "indexed": true,
          "internalType": "address",
          "name": "owner",
          "type": "address"
        },
        {
          "indexed": true,
          "internalType": "address",
          "name": "approved",
          "type": "address"
        },
        {
          "indexed": true,
          "internalType": "uint256",
          "name": "tokenId",
          "type": "uint256"
        }
      ],
      "name": "Approval",
      "type": "event"
    },
    {
      "anonymous": false,
      "inputs": [
        {
          "indexed": true,
          "internalType": "address",
          "name": "owner",
          "type": "address"
        },
        {
          "indexed": true,
          "internalType": "address",
          "name": "operator",
          "type": "address"
        },
        {
          "indexed": false,
          "internalType": "bool",
          "name": "approved",
          "type": "bool"
        }
      ],
      "name": "ApprovalForAll",
      "type": "event"
    },
    {
      "anonymous": false,
      "inputs": [
        {
          "indexed": false,
          "internalType": "uint256",
          "name": "_fromTokenId",
          "type": "uint256"
        },
        {
          "indexed": false,
          "internalType": "uint256",
          "name": "_toTokenId",
          "type": "uint256"
        }
      ],
      "name": "BatchMetadataUpdate",
      "type": "event"
    },
    {
      "anonymous": false,
      "inputs": [
        {
          "indexed": false,
          "internalType": "uint256",
          "name": "_tokenId",
          "type": "uint256"
        }
      ],
      "name": "MetadataUpdate",
      "type": "event"
    },
    {
      "anonymous": false,
      "inputs": [
        {
          "indexed": true,
          "internalType": "address",
          "name": "from",
          "type": "address"
        },
        {
          "indexed": true,
          "internalType": "address",
          "name": "to",
          "type": "address"
        },
        {
          "indexed": true,
          "internalType": "uint256",
          "name": "tokenId",
          "type": "uint256"
        }
      ],
      "name": "Transfer",
      "type": "event"
    },
    {
      "inputs": [
        {
          "internalType": "address",
          "name": "to",
          "type": "address"
        },
        {
          "internalType": "uint256",
          "name": "tokenId",
          "type": "uint256"
        }
      ],
      "name": "approve",
      "outputs": [],
      "stateMutability": "nonpayable",
      "type": "function"
    },
    {
      "inputs": [
        {
          "internalType": "address",
          "name": "owner",
          "type": "address"
        }
      ],
      "name": "balanceOf",
      "outputs": [
        {
          "internalType": "uint256",
          "name": "",
          "type": "uint256"
        }
      ],
      "stateMutability": "view",
      "type": "function"
    },
    {
      "inputs": [
        {
          "internalType": "uint256",
          "name": "tokenId",
          "type": "uint256"
        }
      ],
      "name": "exists",
      "outputs": [
        {
          "internalType": "bool",
          "name": "",
          "type": "bool"
        }
      ],
      "stateMutability": "view",
      "type": "function"
    },
    {
      "inputs": [
        {
          "internalType": "uint256",
          "name": "tokenId",
          "type": "uint256"
        }
      ],
      "name": "getApproved",
      "outputs": [
        {
          "internalType": "address",
          "name": "",
          "type": "address"
        }
      ],
      "stateMutability": "view",
      "type": "function"
    },
    {
      "inputs": [
        {
          "internalType": "address",
          "name": "owner",
          "type": "address"
        },
        {
          "internalType": "address",
          "name": "operator",
          "type": "address"
        }
      ],
      "name": "isApprovedForAll",
      "outputs": [
        {
          "internalType": "bool",
          "name": "",
          "type": "bool"
        }
      ],
      "stateMutability": "view",
      "type": "function"
    },
    {
      "inputs": [
        {
          "internalType": "address",
          "name": "_to",
          "type": "address"
        },
        {
          "internalType": "uint256",
          "name": "_patentId",
          "type": "uint256"
        }
      ],
      "name": "mint",
      "outputs": [],
      "stateMutability": "nonpayable",
      "type": "function"
    },
    {
      "inputs": [],
      "name": "name",
      "outputs": [
        {
          "internalType": "string",
          "name": "",
          "type": "string"
        }
      ],
      "stateMutability": "view",
      "type": "function"
    },
    {
      "inputs": [
        {
          "internalType": "uint256",
          "name": "tokenId",
          "type": "uint256"
        }
      ],
      "name": "ownerOf",
      "outputs": [
        {
          "internalType": "address",
          "name": "",
          "type": "address"
        }
      ],
      "stateMutability": "view",
      "type": "function"
    },
    {
      "inputs": [
        {
          "internalType": "uint256",
          "name": "",
          "type": "uint256"
        }
      ],
      "name": "patentIdToTokenId",
      "outputs": [
        {
          "internalType": "uint256",
          "name": "",
          "type": "uint256"
        }
      ],
      "stateMutability": "view",
      "type": "function"
    },
    {
      "inputs": [
        {
          "internalType": "address",
          "name": "from",
          "type": "address"
        },
        {
          "internalType": "address",
          "name": "to",
          "type": "address"
        },
        {
          "internalType": "uint256",
          "name": "tokenId",
          "type": "uint256"
        }
      ],
      "name": "safeTransferFrom",
      "outputs": [],
      "stateMutability": "nonpayable",
      "type": "function"
    },
    {
      "inputs": [
        {
          "internalType": "address",
          "name": "from",
          "type": "address"
        },
        {
          "internalType": "address",
          "name": "to",
          "type": "address"
        },
        {
          "internalType": "uint256",
          "name": "tokenId",
          "type": "uint256"
        },
        {
          "internalType": "bytes",
          "name": "data",
          "type": "bytes"
        }
      ],
      "name": "safeTransferFrom",
      "outputs": [],
      "stateMutability": "nonpayable",
      "type": "function"
    },
    {
      "inputs": [
        {
          "internalType": "address",
          "name": "operator",
          "type": "address"
        },
        {
          "internalType": "bool",
          "name": "approved",
          "type": "bool"
        }
      ],
      "name": "setApprovalForAll",
      "outputs": [],
      "stateMutability": "nonpayable",
      "type": "function"
    },
    {
      "inputs": [
        {
          "internalType": "bytes4",
          "name": "interfaceId",
          "type": "bytes4"
        }
      ],
      "name": "supportsInterface",
      "outputs": [
        {
          "internalType": "bool",
          "name": "",
          "type": "bool"
        }
      ],
      "stateMutability": "view",
      "type": "function"
    },
    {
      "inputs": [],
      "name": "symbol",
      "outputs": [
        {
          "internalType": "string",
          "name": "",
          "type": "string"
        }
      ],
      "stateMutability": "view",
      "type": "function"
    },
    {
      "inputs": [
        {
          "internalType": "uint256",
          "name": "",
          "type": "uint256"
        }
      ],
      "name": "tokenIdToPatentId",
      "outputs": [
        {
          "internalType": "uint256",
          "name": "",
          "type": "uint256"
        }
      ],
      "stateMutability": "view",
      "type": "function"
    },
    {
      "inputs": [
        {
          "internalType": "uint256",
          "name": "tokenId",
          "type": "uint256"
        }
      ],
      "name": "tokenURI",
      "outputs": [
        {
          "internalType": "string",
          "name": "",
          "type": "string"
        }
      ],
      "stateMutability": "view",
      "type": "function"
    },
    {
      "inputs": [
        {
          "internalType": "address",
          "name": "from",
          "type": "address"
        },
        {
          "internalType": "address",
          "name": "to",
          "type": "address"
        },
        {
          "internalType": "uint256",
          "name": "tokenId",
          "type": "uint256"
        }
      ],
      "name": "transferFrom",
      "outputs": [],
      "stateMutability": "nonpayable",
      "type": "function"
    }
  ],
  "bytecode": "0x60806040523480156200001157600080fd5b50604080518082018252600a81526914185d195b9d0813919560b21b6020808301918252835180850190945260048452631413919560e21b90840152815191929162000060916000916200007f565b508051620000769060019060208401906200007f565b50505062000162565b8280546200008d9062000125565b90600052602060002090601f016020900481019282620000b15760008555620000fc565b82601f10620000cc57805160ff1916838001178555620000fc565b82800160010185558215620000fc579182015b82811115620000fc578251825591602001919060010190620000df565b506200010a9291506200010e565b5090565b5b808211156200010a57600081556001016200010f565b600181811c908216806200013a57607f821691505b602082108114156200015c57634e487b7160e01b600052602260045260246000fd5b50919050565b61178080620001726000396000f3fe608060405234801561001057600080fd5b506004361061010b5760003560e01c80634f558e79116100a2578063a1c6cfaa11610071578063a1c6cfaa14610235578063a22cb46514610255578063b88d4fde14610268578063c87b56dd1461027b578063e985e9c51461028e57600080fd5b80634f558e79146101f45780636352211e1461020757806370a082311461021a57806395d89b411461022d57600080fd5b8063112b028c116100de578063112b028c1461018d57806323b872dd146101bb57806340c10f19146101ce57806342842e0e146101e157600080fd5b806301ffc9a71461011057806306fdde0314610138578063081812fc1461014d578063095ea7b314610178575b600080fd5b61012361011e366004611303565b6102ca565b60405190151581526020015b60405180910390f35b610140610310565b60405161012f9190611378565b61016061015b36600461138b565b6103a2565b6040516001600160a01b03909116815260200161012f565b61018b6101863660046113c0565b6103c9565b005b6101ad61019b36600461138b565b60086020526000908152604090205481565b60405190815260200161012f565b61018b6101c93660046113ea565b6104e4565b61018b6101dc3660046113c0565b610515565b61018b6101ef3660046113ea565b6105e2565b61012361020236600461138b565b6105fd565b61016061021536600461138b565b61061c565b6101ad610228366004611426565b61067c565b610140610702565b6101ad61024336600461138b565b60096020526000908152604090205481565b61018b610263366004611441565b610711565b61018b610276366004611493565b610720565b61014061028936600461138b565b610758565b61012361029c36600461156f565b6001600160a01b03918216600090815260056020908152604080832093909416825291909152205460ff1690565b60006001600160e01b031982166380ac58cd60e01b14806102fb57506001600160e01b03198216635b5e139f60e01b145b8061030a575061030a82610763565b92915050565b60606000805461031f906115a2565b80601f016020809104026020016040519081016040528092919081815260200182805461034b906115a2565b80156103985780601f1061036d57610100808354040283529160200191610398565b820191906000526020600020905b81548152906001019060200180831161037b57829003601f168201915b5050505050905090565b60006103ad82610788565b506000908152600460205260409020546001600160a01b031690565b60006103d48261061c565b9050806001600160a01b0316836001600160a01b031614156104475760405162461bcd60e51b815260206004820152602160248201527f4552433732313a20617070726f76616c20746f2063757272656e74206f776e656044820152603960f91b60648201526084015b60405180910390fd5b336001600160a01b03821614806104635750610463813361029c565b6104d55760405162461bcd60e51b815260206004820152603d60248201527f4552433732313a20617070726f76652063616c6c6572206973206e6f7420746f60448201527f6b656e206f776e6572206f7220617070726f76656420666f7220616c6c000000606482015260840161043e565b6104df83836107ea565b505050565b6104ee3382610858565b61050a5760405162461bcd60e51b815260040161043e906115dd565b6104df8383836108d7565b600081815260096020526040902054156105715760405162461bcd60e51b815260206004820152601c60248201527f506174656e7420616c7265616479206d696e746564206173204e465400000000604482015260640161043e565b600061057c60075490565b905061058c600780546001019055565b6000818152600860209081526040808320859055848352600990915290208190556105b78382610a3b565b6104df81826040516020016105ce91815260200190565b604051602081830303815290604052610a55565b6104df83838360405180602001604052806000815250610720565b6000818152600260205260408120546001600160a01b0316151561030a565b6000818152600260205260408120546001600160a01b03168061030a5760405162461bcd60e51b8152602060048201526018602482015277115490cdcc8c4e881a5b9d985b1a59081d1bdad95b88125160421b604482015260640161043e565b60006001600160a01b0382166106e65760405162461bcd60e51b815260206004820152602960248201527f4552433732313a2061646472657373207a65726f206973206e6f7420612076616044820152683634b21037bbb732b960b91b606482015260840161043e565b506001600160a01b031660009081526003602052604090205490565b60606001805461031f906115a2565b61071c338383610b27565b5050565b61072a3383610858565b6107465760405162461bcd60e51b815260040161043e906115dd565b61075284848484610bf6565b50505050565b606061030a82610c29565b60006001600160e01b03198216632483248360e11b148061030a575061030a82610d41565b6000818152600260205260409020546001600160a01b03166107e75760405162461bcd60e51b8152602060048201526018602482015277115490cdcc8c4e881a5b9d985b1a59081d1bdad95b88125160421b604482015260640161043e565b50565b600081815260046020526040902080546001600160a01b0319166001600160a01b038416908117909155819061081f8261061c565b6001600160a01b03167f8c5be1e5ebec7d5bd14f71427d1e84f3dd0314c0f7b2291e5b200ac8c7c3b92560405160405180910390a45050565b6000806108648361061c565b9050806001600160a01b0316846001600160a01b031614806108ab57506001600160a01b0380821660009081526005602090815260408083209388168352929052205460ff165b806108cf5750836001600160a01b03166108c4846103a2565b6001600160a01b0316145b949350505050565b826001600160a01b03166108ea8261061c565b6001600160a01b0316146109105760405162461bcd60e51b815260040161043e9061162a565b6001600160a01b0382166109725760405162461bcd60e51b8152602060048201526024808201527f4552433732313a207472616e7366657220746f20746865207a65726f206164646044820152637265737360e01b606482015260840161043e565b826001600160a01b03166109858261061c565b6001600160a01b0316146109ab5760405162461bcd60e51b815260040161043e9061162a565b600081815260046020908152604080832080546001600160a01b03199081169091556001600160a01b0387811680865260038552838620805460001901905590871680865283862080546001019055868652600290945282852080549092168417909155905184937fddf252ad1be2c89b69c2b068fc378daa952ba7f163c4a11628f55a4df523b3ef91a4505050565b61071c828260405180602001604052806000815250610d91565b6000828152600260205260409020546001600160a01b0316610ad05760405162461bcd60e51b815260206004820152602e60248201527f45524337323155524953746f726167653a2055524920736574206f66206e6f6e60448201526d32bc34b9ba32b73a103a37b5b2b760911b606482015260840161043e565b60008281526006602090815260409091208251610aef92840190611254565b506040518281527ff8e1a15aba9398e019f0b49df1a4fde98ee17ae345cb5f6b5e2c27f5033e8ce79060200160405180910390a15050565b816001600160a01b0316836001600160a01b03161415610b895760405162461bcd60e51b815260206004820152601960248201527f4552433732313a20617070726f766520746f2063616c6c657200000000000000604482015260640161043e565b6001600160a01b03838116600081815260056020908152604080832094871680845294825291829020805460ff191686151590811790915591519182527f17307eab39ab6107e8899845ad3d59bd9653f200f220920489ca2b5937696c31910160405180910390a3505050565b610c018484846108d7565b610c0d84848484610dc4565b6107525760405162461bcd60e51b815260040161043e9061166f565b6060610c3482610788565b60008281526006602052604081208054610c4d906115a2565b80601f0160208091040260200160405190810160405280929190818152602001828054610c79906115a2565b8015610cc65780601f10610c9b57610100808354040283529160200191610cc6565b820191906000526020600020905b815481529060010190602001808311610ca957829003601f168201915b505050505090506000610cf3604080518082019091526007815266697066733a2f2f60c81b602082015290565b9050805160001415610d06575092915050565b815115610d38578082604051602001610d209291906116c1565b60405160208183030381529060405292505050919050565b6108cf84610ed1565b60006001600160e01b031982166380ac58cd60e01b1480610d7257506001600160e01b03198216635b5e139f60e01b145b8061030a57506301ffc9a760e01b6001600160e01b031983161461030a565b610d9b8383610f54565b610da86000848484610dc4565b6104df5760405162461bcd60e51b815260040161043e9061166f565b60006001600160a01b0384163b15610ec657604051630a85bd0160e11b81526001600160a01b0385169063150b7a0290610e089033908990889088906004016116f0565b602060405180830381600087803b158015610e2257600080fd5b505af1925050508015610e52575060408051601f3d908101601f19168201909252610e4f9181019061172d565b60015b610eac573d808015610e80576040519150601f19603f3d011682016040523d82523d6000602084013e610e85565b606091505b508051610ea45760405162461bcd60e51b815260040161043e9061166f565b805181602001fd5b6001600160e01b031916630a85bd0160e11b1490506108cf565b506001949350505050565b6060610edc82610788565b6000610f02604080518082019091526007815266697066733a2f2f60c81b602082015290565b90506000815111610f225760405180602001604052806000815250610f4d565b80610f2c846110df565b604051602001610f3d9291906116c1565b6040516020818303038152906040525b9392505050565b6001600160a01b038216610faa5760405162461bcd60e51b815260206004820181905260248201527f4552433732313a206d696e7420746f20746865207a65726f2061646472657373604482015260640161043e565b6000818152600260205260409020546001600160a01b03161561100f5760405162461bcd60e51b815260206004820152601c60248201527f4552433732313a20746f6b656e20616c7265616479206d696e74656400000000604482015260640161043e565b6000818152600260205260409020546001600160a01b0316156110745760405162461bcd60e51b815260206004820152601c60248201527f4552433732313a20746f6b656e20616c7265616479206d696e74656400000000604482015260640161043e565b6001600160a01b038216600081815260036020908152604080832080546001019055848352600290915280822080546001600160a01b0319168417905551839291907fddf252ad1be2c89b69c2b068fc378daa952ba7f163c4a11628f55a4df523b3ef908290a45050565b606060006110ec8361117c565b600101905060008167ffffffffffffffff81111561110c5761110c61147d565b6040519080825280601f01601f191660200182016040528015611136576020820181803683370190505b5090508181016020015b600019016f181899199a1a9b1b9c1cb0b131b232b360811b600a86061a8153600a850494508461116f57611174565b611140565b509392505050565b60008072184f03e93ff9f4daa797ed6e38ed64bf6a1f0160401b83106111bb5772184f03e93ff9f4daa797ed6e38ed64bf6a1f0160401b830492506040015b6d04ee2d6d415b85acef810000000083106111e7576d04ee2d6d415b85acef8100000000830492506020015b662386f26fc10000831061120557662386f26fc10000830492506010015b6305f5e100831061121d576305f5e100830492506008015b612710831061123157612710830492506004015b60648310611243576064830492506002015b600a831061030a5760010192915050565b828054611260906115a2565b90600052602060002090601f01602090048101928261128257600085556112c8565b82601f1061129b57805160ff19168380011785556112c8565b828001600101855582156112c8579182015b828111156112c85782518255916020019190600101906112ad565b506112d49291506112d8565b5090565b5b808211156112d457600081556001016112d9565b6001600160e01b0319811681146107e757600080fd5b60006020828403121561131557600080fd5b8135610f4d816112ed565b60005b8381101561133b578181015183820152602001611323565b838111156107525750506000910152565b60008151808452611364816020860160208601611320565b601f01601f19169290920160200192915050565b602081526000610f4d602083018461134c565b60006020828403121561139d57600080fd5b5035919050565b80356001600160a01b03811681146113bb57600080fd5b919050565b600080604083850312156113d357600080fd5b6113dc836113a4565b946020939093013593505050565b6000806000606084860312156113ff57600080fd5b611408846113a4565b9250611416602085016113a4565b9150604084013590509250925092565b60006020828403121561143857600080fd5b610f4d826113a4565b6000806040838503121561145457600080fd5b61145d836113a4565b91506020830135801515811461147257600080fd5b809150509250929050565b634e487b7160e01b600052604160045260246000fd5b600080600080608085870312156114a957600080fd5b6114b2856113a4565b93506114c0602086016113a4565b925060408501359150606085013567ffffffffffffffff808211156114e457600080fd5b818701915087601f8301126114f857600080fd5b81358181111561150a5761150a61147d565b604051601f8201601f19908116603f011681019083821181831017156115325761153261147d565b816040528281528a602084870101111561154b57600080fd5b82602086016020830137600060208483010152809550505050505092959194509250565b6000806040838503121561158257600080fd5b61158b836113a4565b9150611599602084016113a4565b90509250929050565b600181811c908216806115b657607f821691505b602082108114156115d757634e487b7160e01b600052602260045260246000fd5b50919050565b6020808252602d908201527f4552433732313a2063616c6c6572206973206e6f7420746f6b656e206f776e6560408201526c1c881bdc88185c1c1c9bdd9959609a1b606082015260800190565b60208082526025908201527f4552433732313a207472616e736665722066726f6d20696e636f72726563742060408201526437bbb732b960d91b606082015260800190565b60208082526032908201527f4552433732313a207472616e7366657220746f206e6f6e20455243373231526560408201527131b2b4bb32b91034b6b83632b6b2b73a32b960711b606082015260800190565b600083516116d3818460208801611320565b8351908301906116e7818360208801611320565b01949350505050565b6001600160a01b03858116825284166020820152604081018390526080606082018190526000906117239083018461134c565b9695505050505050565b60006020828403121561173f57600080fd5b8151610f4d816112ed56fea2646970667358221220ed3bcbc527406eeb339a605e73a19c4544e924f135a3f78b8738b8fe0c5155e664736f6c63430008090033",
  "linkReferences": {},
  "deployedLinkReferences": {}
}