{
  "_format": "hh-sol-artifact-1",
  "contractName": "PatentRegistryMarketPlace",
  "sourceName": "contracts/PatentRegistryMarketPlace.sol",
  "abi": [
    {
      "inputs": [],
      "stateMutability": "payable",
      "type": "constructor"
    },
    {
      "anonymous": false,
      "inputs": [
        {
          "indexed": true,
          "internalType": "uint256",
          "name": "disputeId",
          "type": "uint256"
        },
        {
          "indexed": true,
          "internalType": "address",
          "name": "initiator",
          "type": "address"
        },
        {
          "indexed": true,
          "internalType": "address",
          "name": "respondent",
          "type": "address"
        }
      ],
      "name": "DisputeInitiated",
      "type": "event"
    },
    {
      "anonymous": false,
      "inputs": [
        {
          "indexed": true,
          "internalType": "uint256",
          "name": "disputeId",
          "type": "uint256"
        }
      ],
      "name": "DisputeResolved",
      "type": "event"
    },
    {
      "anonymous": false,
      "inputs": [
        {
          "indexed": true,
          "internalType": "uint256",
          "name": "agreementId",
          "type": "uint256"
        }
      ],
      "name": "LicenseAgreementApproved",
      "type": "event"
    },
    {
      "anonymous": false,
      "inputs": [
        {
          "indexed": true,
          "internalType": "uint256",
          "name": "agreementId",
          "type": "uint256"
        },
        {
          "indexed": true,
          "internalType": "uint256",
          "name": "patentId",
          "type": "uint256"
        },
        {
          "indexed": false,
          "internalType": "address",
          "name": "patentOwner",
          "type": "address"
        }
      ],
      "name": "LicenseAgreementCreated",
      "type": "event"
    },
    {
      "anonymous": false,
      "inputs": [
        {
          "indexed": true,
          "internalType": "uint256",
          "name": "agreementId",
          "type": "uint256"
        }
      ],
      "name": "LicenseAgreementRejected",
      "type": "event"
    },
    {
      "anonymous": false,
      "inputs": [
        {
          "indexed": true,
          "internalType": "uint256",
          "name": "agreementId",
          "type": "uint256"
        },
        {
          "indexed": true,
          "internalType": "address",
          "name": "licensee",
          "type": "address"
        },
        {
          "indexed": false,
          "internalType": "uint256",
          "name": "amount",
          "type": "uint256"
        }
      ],
      "name": "RoyaltyPaid",
      "type": "event"
    },
    {
      "inputs": [],
      "name": "NFT",
      "outputs": [
        {
          "internalType": "contract PatentNFT",
          "name": "",
          "type": "address"
        }
      ],
      "stateMutability": "view",
      "type": "function"
    },
    {
      "inputs": [
        {
          "internalType": "uint256",
          "name": "_agreementId",
          "type": "uint256"
        }
      ],
      "name": "approveLicenseAgreement",
      "outputs": [],
      "stateMutability": "nonpayable",
      "type": "function"
    },
    {
      "inputs": [
        {
          "internalType": "uint256",
          "name": "_patentId",
          "type": "uint256"
        },
        {
          "internalType": "uint256",
          "name": "_price",
          "type": "uint256"
        },
        {
          "internalType": "uint256",
          "name": "_royaltyPercentage",
          "type": "uint256"
        },
        {
          "internalType": "uint256",
          "name": "_expirationDate",
          "type": "uint256"
        }
      ],
      "name": "createLicenseAgreement",
      "outputs": [],
      "stateMutability": "nonpayable",
      "type": "function"
    },
    {
      "inputs": [
        {
          "internalType": "uint256",
          "name": "",
          "type": "uint256"
        }
      ],
      "name": "disputes",
      "outputs": [
        {
          "internalType": "uint256",
          "name": "disputeId",
          "type": "uint256"
        },
        {
          "internalType": "uint256",
          "name": "patentId",
          "type": "uint256"
        },
        {
          "internalType": "address",
          "name": "initiator",
          "type": "address"
        },
        {
          "internalType": "address",
          "name": "respondent",
          "type": "address"
        },
        {
          "internalType": "string",
          "name": "description",
          "type": "string"
        },
        {
          "internalType": "enum PatentRegistryMarketPlace.DisputeStatus",
          "name": "status",
          "type": "uint8"
        },
        {
          "internalType": "uint256",
          "name": "upVoteCount",
          "type": "uint256"
        },
        {
          "internalType": "uint256",
          "name": "downVoteCount",
          "type": "uint256"
        },
        {
          "internalType": "uint256",
          "name": "startTime",
          "type": "uint256"
        }
      ],
      "stateMutability": "view",
      "type": "function"
    },
    {
      "inputs": [
        {
          "internalType": "uint256",
          "name": "_disputeID",
          "type": "uint256"
        }
      ],
      "name": "downVoteDispute",
      "outputs": [],
      "stateMutability": "nonpayable",
      "type": "function"
    },
    {
      "inputs": [
        {
          "internalType": "uint256",
          "name": "_patentId",
          "type": "uint256"
        }
      ],
      "name": "getPatent",
      "outputs": [
        {
          "components": [
            {
              "internalType": "uint256",
              "name": "patentId",
              "type": "uint256"
            },
            {
              "internalType": "string",
              "name": "title",
              "type": "string"
            },
            {
              "internalType": "string",
              "name": "description",
              "type": "string"
            },
            {
              "internalType": "address",
              "name": "inventor",
              "type": "address"
            },
            {
              "internalType": "uint256",
              "name": "filingDate",
              "type": "uint256"
            },
            {
              "internalType": "string[]",
              "name": "documents",
              "type": "string[]"
            },
            {
              "internalType": "bool",
              "name": "verified",
              "type": "bool"
            }
          ],
          "internalType": "struct PatentRegistryMarketPlace.Patent",
          "name": "",
          "type": "tuple"
        }
      ],
      "stateMutability": "view",
      "type": "function"
    },
    {
      "inputs": [
        {
          "internalType": "uint256",
          "name": "_patentId",
          "type": "uint256"
        },
        {
          "internalType": "address",
          "name": "_respondent",
          "type": "address"
        },
        {
          "internalType": "string",
          "name": "_description",
          "type": "string"
        }
      ],
      "name": "initiateDispute",
      "outputs": [],
      "stateMutability": "nonpayable",
      "type": "function"
    },
    {
      "inputs": [
        {
          "internalType": "uint256",
          "name": "",
          "type": "uint256"
        }
      ],
      "name": "licenseAgreements",
      "outputs": [
        {
          "internalType": "uint256",
          "name": "agreementId",
          "type": "uint256"
        },
        {
          "internalType": "uint256",
          "name": "patentId",
          "type": "uint256"
        },
        {
          "internalType": "address",
          "name": "patentOwner",
          "type": "address"
        },
        {
          "internalType": "uint256",
          "name": "price",
          "type": "uint256"
        },
        {
          "internalType": "uint256",
          "name": "royaltyPercentage",
          "type": "uint256"
        },
        {
          "internalType": "bool",
          "name": "isApproved",
          "type": "bool"
        },
        {
          "internalType": "bool",
          "name": "isEscrowed",
          "type": "bool"
        },
        {
          "internalType": "uint256",
          "name": "expirationDate",
          "type": "uint256"
        }
      ],
      "stateMutability": "view",
      "type": "function"
    },
    {
      "inputs": [
        {
          "internalType": "uint256",
          "name": "_agreementId",
          "type": "uint256"
        },
        {
          "internalType": "uint256",
          "name": "_amount",
          "type": "uint256"
        }
      ],
      "name": "payRoyalty",
      "outputs": [],
      "stateMutability": "nonpayable",
      "type": "function"
    },
    {
      "inputs": [
        {
          "internalType": "string",
          "name": "_title",
          "type": "string"
        },
        {
          "internalType": "string",
          "name": "_description",
          "type": "string"
        },
        {
          "internalType": "string[]",
          "name": "_documents",
          "type": "string[]"
        }
      ],
      "name": "registerPatent",
      "outputs": [],
      "stateMutability": "nonpayable",
      "type": "function"
    },
    {
      "inputs": [
        {
          "internalType": "uint256",
          "name": "_agreementId",
          "type": "uint256"
        }
      ],
      "name": "rejectLicenseAgreement",
      "outputs": [],
      "stateMutability": "nonpayable",
      "type": "function"
    },
    {
      "inputs": [
        {
          "internalType": "uint256",
          "name": "_disputeId",
          "type": "uint256"
        }
      ],
      "name": "resolveDispute",
      "outputs": [],
      "stateMutability": "nonpayable",
      "type": "function"
    },
    {
      "inputs": [],
      "name": "totalDisputes",
      "outputs": [
        {
          "internalType": "uint256",
          "name": "",
          "type": "uint256"
        }
      ],
      "stateMutability": "view",
      "type": "function"
    },
    {
      "inputs": [],
      "name": "totalLicenseAgreements",
      "outputs": [
        {
          "internalType": "uint256",
          "name": "",
          "type": "uint256"
        }
      ],
      "stateMutability": "view",
      "type": "function"
    },
    {
      "inputs": [
        {
          "internalType": "uint256",
          "name": "_disputeID",
          "type": "uint256"
        }
      ],
      "name": "upVoteDispute",
      "outputs": [],
      "stateMutability": "nonpayable",
      "type": "function"
    },
    {
      "inputs": [
        {
          "internalType": "uint256",
          "name": "_patentId",
          "type": "uint256"
        }
      ],
      "name": "verifyPatent",
      "outputs": [],
      "stateMutability": "payable",
      "type": "function"
    }
  ],
  "bytecode": "0x6080604052611d40806100136000396000f3fe6080604052600436106100f35760003560e01c806392c25e5f1161008a578063c5e4ccc411610059578063c5e4ccc41461034a578063c606c28914610360578063d07fef2614610380578063ff219c8a146103a057600080fd5b806392c25e5f146102235780639c6d0d78146102dd578063c15fce3a1461030a578063c2b7b8681461032a57600080fd5b8063564a565d116100c6578063564a565d1461017657806378c8b503146101ab5780637c0b8de2146101cb57806382cae54a1461020357600080fd5b806309f63a53146100f857806327fcc8f81461010d57806351ebca7b146101365780635345682914610156575b600080fd5b61010b610106366004611700565b6103c0565b005b34801561011957600080fd5b5061012360055481565b6040519081526020015b60405180910390f35b34801561014257600080fd5b5061010b610151366004611700565b6106d5565b34801561016257600080fd5b5061010b610171366004611719565b6107da565b34801561018257600080fd5b50610196610191366004611700565b6108ea565b60405161012d999897969594939291906117ae565b3480156101b757600080fd5b5061010b6101c6366004611845565b6109cf565b3480156101d757600080fd5b506000546101eb906001600160a01b031681565b6040516001600160a01b03909116815260200161012d565b34801561020f57600080fd5b5061010b61021e366004611985565b610a81565b34801561022f57600080fd5b5061029261023e366004611700565b600260208190526000918252604090912080546001820154928201546003830154600484015460058501546006909501549395946001600160a01b03909316939192909160ff808316926101009004169088565b6040805198895260208901979097526001600160a01b039095169587019590955260608601929092526080850152151560a084015290151560c083015260e08201526101000161012d565b3480156102e957600080fd5b506102fd6102f8366004611700565b610be6565b60405161012d9190611a8f565b34801561031657600080fd5b5061010b610325366004611700565b610fd5565b34801561033657600080fd5b5061010b610345366004611700565b6110c1565b34801561035657600080fd5b5061012360065481565b34801561036c57600080fd5b5061010b61037b366004611700565b6111dd565b34801561038c57600080fd5b5061010b61039b366004611700565b6112c0565b3480156103ac57600080fd5b5061010b6103bb366004611b68565b61138a565b6000546040516350e367d560e11b8152600481018390526001600160a01b0390911690634f558e7990829063a1c6cfaa9060240160206040518083038186803b15801561040c57600080fd5b505afa158015610420573d6000803e3d6000fd5b505050506040513d601f19601f820116820180604052508101906104449190611b8a565b6040518263ffffffff1660e01b815260040161046291815260200190565b60206040518083038186803b15801561047a57600080fd5b505afa15801561048e573d6000803e3d6000fd5b505050506040513d601f19601f820116820180604052508101906104b29190611ba3565b6104fb5760405162461bcd60e51b815260206004820152601560248201527414185d195b9d08191bd95cc81b9bdd08195e1a5cdd605a1b60448201526064015b60405180910390fd5b6000546040516350e367d560e11b81526004810183905233916001600160a01b031690636352211e90829063a1c6cfaa9060240160206040518083038186803b15801561054757600080fd5b505afa15801561055b573d6000803e3d6000fd5b505050506040513d601f19601f8201168201806040525081019061057f9190611b8a565b6040518263ffffffff1660e01b815260040161059d91815260200190565b60206040518083038186803b1580156105b557600080fd5b505afa1580156105c9573d6000803e3d6000fd5b505050506040513d601f19601f820116820180604052508101906105ed9190611bcc565b6001600160a01b0316146106435760405162461bcd60e51b815260206004820152601c60248201527f596f7520617265206e6f742074686520706174656e74206f776e65720000000060448201526064016104f2565b670de0b6b3a76400003410156106b45760405162461bcd60e51b815260206004820152603060248201527f546865207374616b656420616d6f756e742073686f756c64206265206772656160448201526f3a32b9103a3430b710189032ba3432b960811b60648201526084016104f2565b6000908152600160208190526040909120600601805460ff19169091179055565b6000818152600260208190526040909120908101546001600160a01b0316331461073c5760405162461bcd60e51b8152602060048201526018602482015277596f7520617265206e6f7420746865206c6963656e73656560401b60448201526064016104f2565b600581015460ff16156107615760405162461bcd60e51b81526004016104f290611be9565b60008281526002602081905260408083208381556001810184905591820180546001600160a01b0319169055600382018390556004820183905560058201805461ffff1916905560069091018290555183917f4bb353aca4d5f8bfcac1f067daacb91a631fa87779540beedb9473e00a69ff1e91a25050565b600580549060006107ea83611c44565b90915550506040805161010080820183526005805480845260208085018a815233868801818152606088018c8152608089018c8152600060a08b0181815260c08c0182815260e08d018f81529983526002808a52928e90209c518d55965160018d01559351908b0180546001600160a01b0319166001600160a01b03909216919091179055905160038a0155516004890155518786018054935161ffff1990941691151561ff001916919091179215159096029190911790945590516006909401939093555492519081528692917fef558a7d32f3c8d421663b4a9a54de9cd5a1f57f84ab1bde7321e544e4a487de91015b60405180910390a350505050565b600360208190526000918252604090912080546001820154600283015493830154600484018054939592946001600160a01b0393841694939092169261092f90611c5f565b80601f016020809104026020016040519081016040528092919081815260200182805461095b90611c5f565b80156109a85780601f1061097d576101008083540402835291602001916109a8565b820191906000526020600020905b81548152906001019060200180831161098b57829003601f168201915b50505050600583015460088401546009850154600a90950154939460ff9092169390925089565b600680549060006109df83611c44565b9091555050600654600090815260036020819052604090912060018101869055600281018054336001600160a01b03199182161790915591810180549092166001600160a01b03861617909155610a3a600482018484611540565b5042600a8201556006546040516001600160a01b0386169133917fca2b68577a6d5c8a4cf7ca880d9e6d77e971d52de6faa729fc238f129f0401e990600090a45050505050565b600480549081906000610a9383611c44565b90915550506040805160e081018252828152602080820187815282840187905233606084015242608084015260a08301869052600060c084018190528581526001808452949020835181559051805193949193610af8939285019291909101906115c4565b5060408201518051610b149160028401916020909101906115c4565b5060608201516003820180546001600160a01b0319166001600160a01b039092169190911790556080820151600482015560a08201518051610b60916005840191602090910190611638565b5060c091909101516006909101805460ff19169115159190911790556000546040516340c10f1960e01b8152336004820152602481018390526001600160a01b03909116906340c10f1990604401600060405180830381600087803b158015610bc857600080fd5b505af1158015610bdc573d6000803e3d6000fd5b5050505050505050565b610c316040518060e0016040528060008152602001606081526020016060815260200160006001600160a01b0316815260200160008152602001606081526020016000151581525090565b6000546040516350e367d560e11b8152600481018490526001600160a01b0390911690634f558e7990829063a1c6cfaa9060240160206040518083038186803b158015610c7d57600080fd5b505afa158015610c91573d6000803e3d6000fd5b505050506040513d601f19601f82011682018060405250810190610cb59190611b8a565b6040518263ffffffff1660e01b8152600401610cd391815260200190565b60206040518083038186803b158015610ceb57600080fd5b505afa158015610cff573d6000803e3d6000fd5b505050506040513d601f19601f82011682018060405250810190610d239190611ba3565b610d675760405162461bcd60e51b815260206004820152601560248201527414185d195b9d08191bd95cc81b9bdd08195e1a5cdd605a1b60448201526064016104f2565b600082815260016020818152604092839020835160e0810190945280548452918201805491840191610d9890611c5f565b80601f0160208091040260200160405190810160405280929190818152602001828054610dc490611c5f565b8015610e115780601f10610de657610100808354040283529160200191610e11565b820191906000526020600020905b815481529060010190602001808311610df457829003601f168201915b50505050508152602001600282018054610e2a90611c5f565b80601f0160208091040260200160405190810160405280929190818152602001828054610e5690611c5f565b8015610ea35780601f10610e7857610100808354040283529160200191610ea3565b820191906000526020600020905b815481529060010190602001808311610e8657829003601f168201915b505050505081526020016003820160009054906101000a90046001600160a01b03166001600160a01b03166001600160a01b031681526020016004820154815260200160058201805480602002602001604051908101604052809291908181526020016000905b82821015610fb6578382906000526020600020018054610f2990611c5f565b80601f0160208091040260200160405190810160405280929190818152602001828054610f5590611c5f565b8015610fa25780601f10610f7757610100808354040283529160200191610fa2565b820191906000526020600020905b815481529060010190602001808311610f8557829003601f168201915b505050505081526020019060010190610f0a565b505050908252506006919091015460ff16151560209091015292915050565b6000818152600360209081526040808320338452600681019092529091205460ff16156110445760405162461bcd60e51b815260206004820152601e60248201527f416c7265616479207570766f746564206f6e207468652044697370757465000060448201526064016104f2565b33600090815260078201602052604090205460ff16156110765760098101805490600061107083611c9a565b91905055505b3360009081526007820160209081526040808320805460ff1990811690915560068501909252822080549091166001179055600882018054916110b883611c44565b91905055505050565b600081815260036020526040812090600582015460ff1660018111156110e9576110e9611798565b1461112f5760405162461bcd60e51b815260206004820152601660248201527544697370757465206973206e6f742070656e64696e6760501b60448201526064016104f2565b4281600a0154620d2f006111439190611cb1565b1161119f5760405162461bcd60e51b815260206004820152602660248201527f4e6f7420656e6f7567682074696d6520746f207265736f6c766520746865206460448201526569737075746560d01b60648201526084016104f2565b60058101805460ff1916600117905560405182907f57cce005d496355471bb5269f1dea3d6c81b6ac14c1d74ba28aefb022357013b90600090a25050565b6000818152600360209081526040808320338452600781019092529091205460ff161561124c5760405162461bcd60e51b815260206004820181905260248201527f416c726561647920646f776e566f746564206f6e20746865204469737075746560448201526064016104f2565b33600090815260078201602052604090205460ff161561127e5760088101805490600061127883611c9a565b91905055505b3360009081526007820160209081526040808320805460ff1990811660011790915560068501909252822080549091169055600982018054916110b883611c44565b6000818152600260208190526040909120908101546001600160a01b031633146113275760405162461bcd60e51b8152602060048201526018602482015277596f7520617265206e6f7420746865206c6963656e73656560401b60448201526064016104f2565b600581015460ff161561134c5760405162461bcd60e51b81526004016104f290611be9565b60058101805460ff1916600117905560405182907f71249bd838b3ec9e22f091c64bd7647d3fb13c32776f95ae5d1292bf0878009d90600090a25050565b6000828152600260205260409020600581015460ff166113f65760405162461bcd60e51b815260206004820152602160248201527f4c6963656e73652061677265656d656e74206973206e6f7420617070726f76656044820152601960fa1b60648201526084016104f2565b6005810154610100900460ff1661144f5760405162461bcd60e51b815260206004820152601760248201527f46756e647320617265206e6f7420696e20657363726f7700000000000000000060448201526064016104f2565b42816006015410156114a35760405162461bcd60e51b815260206004820152601d60248201527f4c6963656e73652061677265656d656e7420686173206578706972656400000060448201526064016104f2565b600060648260040154846114b79190611cc9565b6114c19190611ce8565b60058301805461ff001916905560028301546040519192506001600160a01b03169082156108fc029083906000818181858888f1935050505015801561150b573d6000803e3d6000fd5b50604051818152339085907ff670029fc6f5302baba881b4ae845d1453acdf752b4c19ed81fe0fa6a686409b906020016108dc565b82805461154c90611c5f565b90600052602060002090601f01602090048101928261156e57600085556115b4565b82601f106115875782800160ff198235161785556115b4565b828001600101855582156115b4579182015b828111156115b4578235825591602001919060010190611599565b506115c0929150611691565b5090565b8280546115d090611c5f565b90600052602060002090601f0160209004810192826115f257600085556115b4565b82601f1061160b57805160ff19168380011785556115b4565b828001600101855582156115b4579182015b828111156115b457825182559160200191906001019061161d565b828054828255906000526020600020908101928215611685579160200282015b8281111561168557825180516116759184916020909101906115c4565b5091602001919060010190611658565b506115c09291506116a6565b5b808211156115c05760008155600101611692565b808211156115c05760006116ba82826116c3565b506001016116a6565b5080546116cf90611c5f565b6000825580601f106116df575050565b601f0160209004906000526020600020908101906116fd9190611691565b50565b60006020828403121561171257600080fd5b5035919050565b6000806000806080858703121561172f57600080fd5b5050823594602084013594506040840135936060013592509050565b6000815180845260005b8181101561177157602081850181015186830182015201611755565b81811115611783576000602083870101525b50601f01601f19169290920160200192915050565b634e487b7160e01b600052602160045260246000fd5b898152602081018990526001600160a01b03888116604083015287166060820152610120608082018190526000906117e88382018961174b565b9150506002861061180957634e487b7160e01b600052602160045260246000fd5b8560a08301528460c08301528360e0830152826101008301529a9950505050505050505050565b6001600160a01b03811681146116fd57600080fd5b6000806000806060858703121561185b57600080fd5b84359350602085013561186d81611830565b9250604085013567ffffffffffffffff8082111561188a57600080fd5b818701915087601f83011261189e57600080fd5b8135818111156118ad57600080fd5b8860208285010111156118bf57600080fd5b95989497505060200194505050565b634e487b7160e01b600052604160045260246000fd5b604051601f8201601f1916810167ffffffffffffffff8111828210171561190d5761190d6118ce565b604052919050565b600082601f83011261192657600080fd5b813567ffffffffffffffff811115611940576119406118ce565b611953601f8201601f19166020016118e4565b81815284602083860101111561196857600080fd5b816020850160208301376000918101602001919091529392505050565b60008060006060848603121561199a57600080fd5b833567ffffffffffffffff808211156119b257600080fd5b6119be87838801611915565b94506020915081860135818111156119d557600080fd5b6119e188828901611915565b9450506040860135818111156119f657600080fd5b8601601f81018813611a0757600080fd5b803582811115611a1957611a196118ce565b8060051b611a288582016118e4565b918252828101850191858101908b841115611a4257600080fd5b86850192505b83831015611a7e57823586811115611a605760008081fd5b611a6e8d8983890101611915565b8352509186019190860190611a48565b809750505050505050509250925092565b600060208083528351818401528084015160e06040850152611ab561010085018261174b565b90506040850151601f1980868403016060870152611ad3838361174b565b60608801516001600160a01b031660808881019190915288015160a088810191909152880151878203830160c089015280518083529194508501925084840190600581901b8501860160005b82811015611b4b5784878303018452611b3982875161174b565b95880195938801939150600101611b1f565b5060c08a015180151560e08b015296509998505050505050505050565b60008060408385031215611b7b57600080fd5b50508035926020909101359150565b600060208284031215611b9c57600080fd5b5051919050565b600060208284031215611bb557600080fd5b81518015158114611bc557600080fd5b9392505050565b600060208284031215611bde57600080fd5b8151611bc581611830565b60208082526025908201527f4c6963656e73652061677265656d656e7420697320616c7265616479206170706040820152641c9bdd995960da1b606082015260800190565b634e487b7160e01b600052601160045260246000fd5b6000600019821415611c5857611c58611c2e565b5060010190565b600181811c90821680611c7357607f821691505b60208210811415611c9457634e487b7160e01b600052602260045260246000fd5b50919050565b600081611ca957611ca9611c2e565b506000190190565b60008219821115611cc457611cc4611c2e565b500190565b6000816000190483118215151615611ce357611ce3611c2e565b500290565b600082611d0557634e487b7160e01b600052601260045260246000fd5b50049056fea2646970667358221220f9a4297e6b1d8e3de64ccf34515b624f22ef07bea371d0b561438cc75192352364736f6c63430008090033",
  "linkReferences": {},
  "deployedLinkReferences": {}
}